{
  "address": "0x20f103d12c739A04Ef880bfB98f17A192278F399",
  "abi": [
    {
      "inputs": [
        {
          "internalType": "address",
          "name": "_airnodeRrpAddress",
          "type": "address"
        }
      ],
      "stateMutability": "nonpayable",
      "type": "constructor"
    },
    {
      "anonymous": false,
      "inputs": [
        {
          "indexed": false,
          "internalType": "uint256",
          "name": "_raffleId",
          "type": "uint256"
        }
      ],
      "name": "RaffleCreated",
      "type": "event"
    },
    {
      "anonymous": false,
      "inputs": [
        {
          "indexed": true,
          "internalType": "bytes32",
          "name": "role",
          "type": "bytes32"
        },
        {
          "indexed": true,
          "internalType": "bytes32",
          "name": "previousAdminRole",
          "type": "bytes32"
        },
        {
          "indexed": true,
          "internalType": "bytes32",
          "name": "newAdminRole",
          "type": "bytes32"
        }
      ],
      "name": "RoleAdminChanged",
      "type": "event"
    },
    {
      "anonymous": false,
      "inputs": [
        {
          "indexed": true,
          "internalType": "bytes32",
          "name": "role",
          "type": "bytes32"
        },
        {
          "indexed": true,
          "internalType": "address",
          "name": "account",
          "type": "address"
        },
        {
          "indexed": true,
          "internalType": "address",
          "name": "sender",
          "type": "address"
        }
      ],
      "name": "RoleGranted",
      "type": "event"
    },
    {
      "anonymous": false,
      "inputs": [
        {
          "indexed": true,
          "internalType": "bytes32",
          "name": "role",
          "type": "bytes32"
        },
        {
          "indexed": true,
          "internalType": "address",
          "name": "account",
          "type": "address"
        },
        {
          "indexed": true,
          "internalType": "address",
          "name": "sender",
          "type": "address"
        }
      ],
      "name": "RoleRevoked",
      "type": "event"
    },
    {
      "inputs": [],
      "name": "ANUairnodeAddress",
      "outputs": [
        {
          "internalType": "address",
          "name": "",
          "type": "address"
        }
      ],
      "stateMutability": "view",
      "type": "function"
    },
    {
      "inputs": [],
      "name": "DEFAULT_ADMIN_ROLE",
      "outputs": [
        {
          "internalType": "bytes32",
          "name": "",
          "type": "bytes32"
        }
      ],
      "stateMutability": "view",
      "type": "function"
    },
    {
      "inputs": [],
      "name": "RAFFLE_ADMIN",
      "outputs": [
        {
          "internalType": "bytes32",
          "name": "",
          "type": "bytes32"
        }
      ],
      "stateMutability": "view",
      "type": "function"
    },
    {
      "inputs": [
        {
          "internalType": "address",
          "name": "",
          "type": "address"
        },
        {
          "internalType": "uint256",
          "name": "",
          "type": "uint256"
        }
      ],
      "name": "accountRaffles",
      "outputs": [
        {
          "internalType": "uint256",
          "name": "",
          "type": "uint256"
        }
      ],
      "stateMutability": "view",
      "type": "function"
    },
    {
      "inputs": [],
      "name": "airnode",
      "outputs": [
        {
          "internalType": "address",
          "name": "",
          "type": "address"
        }
      ],
      "stateMutability": "view",
      "type": "function"
    },
    {
      "inputs": [],
      "name": "airnodeRrp",
      "outputs": [
        {
          "internalType": "contract IAirnodeRrpV0",
          "name": "",
          "type": "address"
        }
      ],
      "stateMutability": "view",
      "type": "function"
    },
    {
      "inputs": [],
      "name": "airnodeRrpAddress",
      "outputs": [
        {
          "internalType": "address",
          "name": "",
          "type": "address"
        }
      ],
      "stateMutability": "view",
      "type": "function"
    },
    {
      "inputs": [
        {
          "internalType": "uint256",
          "name": "_raffleId",
          "type": "uint256"
        }
      ],
      "name": "close",
      "outputs": [],
      "stateMutability": "payable",
      "type": "function"
    },
    {
      "inputs": [
        {
          "internalType": "uint256",
          "name": "_price",
          "type": "uint256"
        },
        {
          "internalType": "uint16",
          "name": "_winnerCount",
          "type": "uint16"
        },
        {
          "internalType": "string",
          "name": "_title",
          "type": "string"
        },
        {
          "internalType": "uint256",
          "name": "_startTime",
          "type": "uint256"
        },
        {
          "internalType": "uint256",
          "name": "_endTime",
          "type": "uint256"
        }
      ],
      "name": "create",
      "outputs": [],
      "stateMutability": "nonpayable",
      "type": "function"
    },
    {
      "inputs": [],
      "name": "endpointId",
      "outputs": [
        {
          "internalType": "bytes32",
          "name": "",
          "type": "bytes32"
        }
      ],
      "stateMutability": "view",
      "type": "function"
    },
    {
      "inputs": [
        {
          "internalType": "uint256",
          "name": "_raffleId",
          "type": "uint256"
        },
        {
          "internalType": "uint256",
          "name": "entryCount",
          "type": "uint256"
        }
      ],
      "name": "enter",
      "outputs": [],
      "stateMutability": "payable",
      "type": "function"
    },
    {
      "inputs": [
        {
          "internalType": "address",
          "name": "_account",
          "type": "address"
        }
      ],
      "name": "getAccountRaffles",
      "outputs": [
        {
          "components": [
            {
              "internalType": "uint256",
              "name": "id",
              "type": "uint256"
            },
            {
              "internalType": "string",
              "name": "title",
              "type": "string"
            },
            {
              "internalType": "uint256",
              "name": "price",
              "type": "uint256"
            },
            {
              "internalType": "uint256",
              "name": "winnerCount",
              "type": "uint256"
            },
            {
              "internalType": "address[]",
              "name": "winners",
              "type": "address[]"
            },
            {
              "internalType": "address[]",
              "name": "entries",
              "type": "address[]"
            },
            {
              "internalType": "bool",
              "name": "open",
              "type": "bool"
            },
            {
              "internalType": "uint256",
              "name": "startTime",
              "type": "uint256"
            },
            {
              "internalType": "uint256",
              "name": "endTime",
              "type": "uint256"
            },
            {
              "internalType": "uint256",
              "name": "balance",
              "type": "uint256"
            },
            {
              "internalType": "address",
              "name": "owner",
              "type": "address"
            },
            {
              "internalType": "bool",
              "name": "airnodeSuccess",
              "type": "bool"
            }
          ],
          "internalType": "struct Raffler.Raffle[]",
          "name": "",
          "type": "tuple[]"
        }
      ],
      "stateMutability": "view",
      "type": "function"
    },
    {
      "inputs": [
        {
          "internalType": "uint256",
          "name": "_raffleId",
          "type": "uint256"
        }
      ],
      "name": "getEntries",
      "outputs": [
        {
          "internalType": "address[]",
          "name": "",
          "type": "address[]"
        }
      ],
      "stateMutability": "view",
      "type": "function"
    },
    {
      "inputs": [
        {
          "internalType": "bytes32",
          "name": "role",
          "type": "bytes32"
        }
      ],
      "name": "getRoleAdmin",
      "outputs": [
        {
          "internalType": "bytes32",
          "name": "",
          "type": "bytes32"
        }
      ],
      "stateMutability": "view",
      "type": "function"
    },
    {
      "inputs": [
        {
          "internalType": "uint256",
          "name": "_raffleId",
          "type": "uint256"
        }
      ],
      "name": "getWinners",
      "outputs": [
        {
          "internalType": "address[]",
          "name": "",
          "type": "address[]"
        }
      ],
      "stateMutability": "view",
      "type": "function"
    },
    {
      "inputs": [
        {
          "internalType": "bytes32",
          "name": "role",
          "type": "bytes32"
        },
        {
          "internalType": "address",
          "name": "account",
          "type": "address"
        }
      ],
      "name": "grantRole",
      "outputs": [],
      "stateMutability": "nonpayable",
      "type": "function"
    },
    {
      "inputs": [
        {
          "internalType": "bytes32",
          "name": "role",
          "type": "bytes32"
        },
        {
          "internalType": "address",
          "name": "account",
          "type": "address"
        }
      ],
      "name": "hasRole",
      "outputs": [
        {
          "internalType": "bool",
          "name": "",
          "type": "bool"
        }
      ],
      "stateMutability": "view",
      "type": "function"
    },
    {
      "inputs": [
        {
          "internalType": "uint256",
          "name": "_raffleId",
          "type": "uint256"
        },
        {
          "internalType": "address",
          "name": "_address",
          "type": "address"
        }
      ],
      "name": "isWinner",
      "outputs": [
        {
          "internalType": "bool",
          "name": "",
          "type": "bool"
        }
      ],
      "stateMutability": "view",
      "type": "function"
    },
    {
      "inputs": [
        {
          "internalType": "bytes32",
          "name": "",
          "type": "bytes32"
        }
      ],
      "name": "pendingRequestIds",
      "outputs": [
        {
          "internalType": "bool",
          "name": "",
          "type": "bool"
        }
      ],
      "stateMutability": "view",
      "type": "function"
    },
    {
      "inputs": [
        {
          "internalType": "bytes32",
          "name": "requestId",
          "type": "bytes32"
        },
        {
          "internalType": "bytes",
          "name": "data",
          "type": "bytes"
        }
      ],
      "name": "pickWinners",
      "outputs": [],
      "stateMutability": "nonpayable",
      "type": "function"
    },
    {
      "inputs": [
        {
          "internalType": "uint256",
          "name": "",
          "type": "uint256"
        }
      ],
      "name": "raffles",
      "outputs": [
        {
          "internalType": "uint256",
          "name": "id",
          "type": "uint256"
        },
        {
          "internalType": "string",
          "name": "title",
          "type": "string"
        },
        {
          "internalType": "uint256",
          "name": "price",
          "type": "uint256"
        },
        {
          "internalType": "uint256",
          "name": "winnerCount",
          "type": "uint256"
        },
        {
          "internalType": "bool",
          "name": "open",
          "type": "bool"
        },
        {
          "internalType": "uint256",
          "name": "startTime",
          "type": "uint256"
        },
        {
          "internalType": "uint256",
          "name": "endTime",
          "type": "uint256"
        },
        {
          "internalType": "uint256",
          "name": "balance",
          "type": "uint256"
        },
        {
          "internalType": "address",
          "name": "owner",
          "type": "address"
        },
        {
          "internalType": "bool",
          "name": "airnodeSuccess",
          "type": "bool"
        }
      ],
      "stateMutability": "view",
      "type": "function"
    },
    {
      "inputs": [
        {
          "internalType": "bytes32",
          "name": "role",
          "type": "bytes32"
        },
        {
          "internalType": "address",
          "name": "account",
          "type": "address"
        }
      ],
      "name": "renounceRole",
      "outputs": [],
      "stateMutability": "nonpayable",
      "type": "function"
    },
    {
      "inputs": [
        {
          "internalType": "bytes32",
          "name": "role",
          "type": "bytes32"
        },
        {
          "internalType": "address",
          "name": "account",
          "type": "address"
        }
      ],
      "name": "revokeRole",
      "outputs": [],
      "stateMutability": "nonpayable",
      "type": "function"
    },
    {
      "inputs": [
        {
          "internalType": "address",
          "name": "_airnodeRrpAddress",
          "type": "address"
        }
      ],
      "name": "setAirnodeRrpAddress",
      "outputs": [],
      "stateMutability": "nonpayable",
      "type": "function"
    },
    {
      "inputs": [
        {
          "internalType": "address",
          "name": "_sponsorWallet",
          "type": "address"
        }
      ],
      "name": "setSponsorWallet",
      "outputs": [],
      "stateMutability": "nonpayable",
      "type": "function"
    },
    {
      "inputs": [],
      "name": "sponsor",
      "outputs": [
        {
          "internalType": "address",
          "name": "",
          "type": "address"
        }
      ],
      "stateMutability": "view",
      "type": "function"
    },
    {
      "inputs": [],
      "name": "sponsorWallet",
      "outputs": [
        {
          "internalType": "address",
          "name": "",
          "type": "address"
        }
      ],
      "stateMutability": "view",
      "type": "function"
    },
    {
      "inputs": [
        {
          "internalType": "bytes4",
          "name": "interfaceId",
          "type": "bytes4"
        }
      ],
      "name": "supportsInterface",
      "outputs": [
        {
          "internalType": "bool",
          "name": "",
          "type": "bool"
        }
      ],
      "stateMutability": "view",
      "type": "function"
    }
  ],
  "transactionHash": "0xcc02511fc44f3aed375873bccb4f549e1bcce1175ceacb07ab58db03f4b6da62",
  "args": [
    "0xa0AD79D995DdeeB18a14eAef56A549A04e3Aa1Bd"
  ],
  "numDeployments": 1,
  "solcInputHash": "54e0479856b5989720ac6293ee8cc91b",
  "bytecode": "0x60a0604052600a80546001600160a01b031916739d3c147ca16db954873a498e0af5852ab39139f21790557f27cc2713e7f968e4e86ed274a051a5c8aaee9cca66946f23af6f29ecea9704c3600b553480156200005b57600080fd5b506040516200250c3803806200250c8339810160408190526200007e91620001f4565b6001600160a01b0381166080819052604051632b77c09f60e21b81523060048201526001602482015282919063addf027c90604401600060405180830381600087803b158015620000ce57600080fd5b505af1158015620000e3573d6000803e3d6000fd5b5050600780546001600160a01b03199081166001600160a01b03871617909155600880543392168217905562000120935060009250905062000153565b6200014c7fe34fa8d49c9a49f770331b389e49831dd778c8bfafac477cfd110611ae2bfff73362000153565b5062000226565b6000828152602081815260408083206001600160a01b038516845290915290205460ff16620001f0576000828152602081815260408083206001600160a01b03851684529091529020805460ff19166001179055620001af3390565b6001600160a01b0316816001600160a01b0316837f2f8788117e7eff1d82e926ec794901d17c78024a50270940304540a733656f0d60405160405180910390a45b5050565b6000602082840312156200020757600080fd5b81516001600160a01b03811681146200021f57600080fd5b9392505050565b6080516122c3620002496000396000818161039e015261078901526122c36000f3fe6080604052600436106101775760003560e01c806371bab666116100cc578063ab98dcdd1161007a578063ab98dcdd14610490578063bdd415af146104b0578063bf90fb4e146104d0578063c07724ec146104f0578063d3549ebd14610510578063d547741f14610530578063e8ac21011461055057600080fd5b806371bab6661461038c57806377c93662146103d857806377e20df8146103f857806391d148541461040e578063960972c71461042e578063a217fddf1461045b578063a36ff4d81461047057600080fd5b806336568abe1161012957806336568abe1461027757806337c28e63146102975780633f532acd146102b75780633f9e2fee146102d75780635d4bc0ce146102f95780636040a9661461032f5780636b1426a41461035f57600080fd5b806301ffc9a71461017c5780630aebeb4e146101b157806323972aef146101c6578063248a9ca3146101d957806327f7295f146102175780632d02cafc146102375780632f2ff15d14610257575b600080fd5b34801561018857600080fd5b5061019c610197366004611ad7565b610570565b60405190151581526020015b60405180910390f35b6101c46101bf366004611b01565b6105a7565b005b6101c46101d4366004611b1a565b6108b6565b3480156101e557600080fd5b506102096101f4366004611b01565b60009081526020819052604090206001015490565b6040519081526020016101a8565b34801561022357600080fd5b506101c4610232366004611b58565b610a2f565b34801561024357600080fd5b50610209610252366004611b73565b610a6a565b34801561026357600080fd5b506101c4610272366004611b9d565b610a9b565b34801561028357600080fd5b506101c4610292366004611b9d565b610ac5565b3480156102a357600080fd5b506101c46102b2366004611b58565b610b3f565b3480156102c357600080fd5b506101c46102d2366004611bc9565b610b7a565b3480156102e357600080fd5b5061020960008051602061226e83398151915281565b34801561030557600080fd5b50610319610314366004611b01565b610d82565b6040516101a89a99989796959493929190611c9d565b34801561033b57600080fd5b5061019c61034a366004611b01565b60046020526000908152604090205460ff1681565b34801561036b57600080fd5b5061037f61037a366004611b01565b610e6c565b6040516101a89190611d48565b34801561039857600080fd5b506103c07f000000000000000000000000000000000000000000000000000000000000000081565b6040516001600160a01b0390911681526020016101a8565b3480156103e457600080fd5b506008546103c0906001600160a01b031681565b34801561040457600080fd5b50610209600b5481565b34801561041a57600080fd5b5061019c610429366004611b9d565b610edb565b34801561043a57600080fd5b5061044e610449366004611b58565b610f04565b6040516101a89190611d5b565b34801561046757600080fd5b50610209600081565b34801561047c57600080fd5b506006546103c0906001600160a01b031681565b34801561049c57600080fd5b50600a546103c0906001600160a01b031681565b3480156104bc57600080fd5b5061019c6104cb366004611b9d565b611272565b3480156104dc57600080fd5b506009546103c0906001600160a01b031681565b3480156104fc57600080fd5b506101c461050b366004611eb9565b6112ff565b34801561051c57600080fd5b5061037f61052b366004611b01565b611599565b34801561053c57600080fd5b506101c461054b366004611b9d565b611606565b34801561055c57600080fd5b506007546103c0906001600160a01b031681565b60006001600160e01b03198216637965db0b60e01b14806105a157506301ffc9a760e01b6001600160e01b03198316145b92915050565b60008051602061226e8339815191526105bf8161162b565b6000828152600260205260409020600a8101546001600160a01b031633146106395760405162461bcd60e51b815260206004820152602260248201527f4f6e6c7920726166666c65206f776e65722063616e207069636b2077696e6e65604482015261727360f01b60648201526084015b60405180910390fd5b600681015460ff1661065d5760405162461bcd60e51b815260040161063090611f83565b600581015461067557600601805460ff191690555050565b6003810154600582015410156106c25760405162461bcd60e51b81526020600482015260126024820152714e6f7420656e6f75676820656e747269657360701b6044820152606401610630565b66038d7ea4c6800034101561072e5760405162461bcd60e51b815260206004820152602c60248201527f506c656173652073656e6420736f6d652066756e647320746f2074686520737060448201526b1bdb9cdbdc881dd85b1b195d60a21b6064820152608401610630565b6009546040516001600160a01b03909116903480156108fc02916000818181858888f19350505050158015610767573d6000803e3d6000fd5b50600a54600b5460085460095460038501546040516000956001600160a01b037f0000000000000000000000000000000000000000000000000000000000000000811696636e6be03f96928216959094928216939116913091633f532acd60e01b916107f69161317560f01b916373697a6560e01b916020019283526020830191909152604082015260600190565b6040516020818303038152906040526040518863ffffffff1660e01b81526004016108279796959493929190611fad565b602060405180830381600087803b15801561084157600080fd5b505af1158015610855573d6000803e3d6000fd5b505050506040513d601f19601f82011682018060405250810190610879919061200d565b6000908152600460209081526040808320805460ff19908116600117909155600590925290912085905560069092018054909216909155505b5050565b6000828152600260205260409020600681015460ff166108e85760405162461bcd60e51b815260040161063090611f83565b60018210156109395760405162461bcd60e51b815260206004820152601e60248201527f456e74727920636f756e74206d757374206265206174206c65617374203100006044820152606401610630565b80600701544210158015610951575080600801544211155b61096d5760405162461bcd60e51b815260040161063090611f83565b81816002015461097d919061203c565b34146109cb5760405162461bcd60e51b815260206004820152601a60248201527f456e74727920707269636520646f6573206e6f74206d617463680000000000006044820152606401610630565b348160090160008282546109df919061205b565b90915550600090505b82811015610a2957600582018054600181018255600091825260209091200180546001600160a01b0319163317905580610a2181612073565b9150506109e8565b50505050565b60008051602061226e833981519152610a478161162b565b50600780546001600160a01b0319166001600160a01b0392909216919091179055565b60036020528160005260406000208181548110610a8657600080fd5b90600052602060002001600091509150505481565b600082815260208190526040902060010154610ab68161162b565b610ac08383611638565b505050565b6001600160a01b0381163314610b355760405162461bcd60e51b815260206004820152602f60248201527f416363657373436f6e74726f6c3a2063616e206f6e6c792072656e6f756e636560448201526e103937b632b9903337b91039b2b63360891b6064820152608401610630565b6108b282826116bc565b60008051602061226e833981519152610b578161162b565b50600980546001600160a01b0319166001600160a01b0392909216919091179055565b60008051602061226e833981519152610b928161162b565b60008481526004602052604090205460ff16610be75760405162461bcd60e51b81526020600482015260146024820152734e6f20737563682072657175657374206d61646560601b6044820152606401610630565b6000848152600460209081526040808320805460ff191690556005825280832054835260029091529020600a810154600160a01b900460ff1615610c665760405162461bcd60e51b815260206004820152601660248201527515da5b9b995c9cc8185b1c9958591e481c1a58dad95960521b6044820152606401610630565b6000610c748486018661208e565b905060005b8151811015610d265760008360050180549050838381518110610c9e57610c9e612134565b6020026020010151610cb0919061214a565b905083600401846005018281548110610ccb57610ccb612134565b60009182526020808320909101548354600181018555938352912090910180546001600160a01b0319166001600160a01b03909216919091179055610d138160058601611721565b5080610d1e81612073565b915050610c79565b50600a8201805460ff60a01b198116600160a01b1790915560098301546040516001600160a01b039092169181156108fc0291906000818181858888f19350505050158015610d79573d6000803e3d6000fd5b50505050505050565b60026020526000908152604090208054600182018054919291610da49061216c565b80601f0160208091040260200160405190810160405280929190818152602001828054610dd09061216c565b8015610e1d5780601f10610df257610100808354040283529160200191610e1d565b820191906000526020600020905b815481529060010190602001808311610e0057829003601f168201915b50505050600283015460038401546006850154600786015460088701546009880154600a909801549697949693955060ff92831694919390926001600160a01b03821691600160a01b9004168a565b600081815260026020908152604091829020600401805483518184028101840190945280845260609392830182828015610ecf57602002820191906000526020600020905b81546001600160a01b03168152600190910190602001808311610eb1575b50505050509050919050565b6000918252602082815260408084206001600160a01b0393909316845291905290205460ff1690565b6001600160a01b0381166000908152600360209081526040808320805482518185028101850190935280835260609493830182828015610f6357602002820191906000526020600020905b815481526020019060010190808311610f4f575b505050505090506000815167ffffffffffffffff811115610f8657610f86611e72565b60405190808252806020026020018201604052801561102857816020015b61101560405180610180016040528060008152602001606081526020016000815260200160008152602001606081526020016060815260200160001515815260200160008152602001600081526020016000815260200160006001600160a01b031681526020016000151581525090565b815260200190600190039081610fa45790505b50905060005b825181101561126a576002600084838151811061104d5761104d612134565b6020026020010151815260200190815260200160002060405180610180016040529081600082015481526020016001820180546110899061216c565b80601f01602080910402602001604051908101604052809291908181526020018280546110b59061216c565b80156111025780601f106110d757610100808354040283529160200191611102565b820191906000526020600020905b8154815290600101906020018083116110e557829003601f168201915b5050505050815260200160028201548152602001600382015481526020016004820180548060200260200160405190810160405280929190818152602001828054801561117857602002820191906000526020600020905b81546001600160a01b0316815260019091019060200180831161115a575b50505050508152602001600582018054806020026020016040519081016040528092919081815260200182805480156111da57602002820191906000526020600020905b81546001600160a01b031681526001909101906020018083116111bc575b5050509183525050600682015460ff90811615156020830152600783015460408301526008830154606083015260098301546080830152600a909201546001600160a01b03811660a0830152600160a01b9004909116151560c090910152825183908390811061124c5761124c612134565b6020026020010181905250808061126290612073565b91505061102e565b509392505050565b6000805b6000848152600260205260409020600401548110156112f557600084815260026020526040902060040180546001600160a01b0385169190839081106112be576112be612134565b6000918252602090912001546001600160a01b031614156112e35760019150506105a1565b806112ed81612073565b915050611276565b5060009392505050565b60008051602061226e8339815191526113178161162b565b60008561ffff16116113775760405162461bcd60e51b815260206004820152602360248201527f57696e6e657220636f756e74206d75737420626520677265617465722074686160448201526206e20360ec1b6064820152608401610630565b611385600180546001019055565b600060405180610180016040528061139c60015490565b8152602081018790526040810189905261ffff8816606082015260800160006040519080825280602002602001820160405280156113e4578160200160208202803683370190505b5081526020016000604051908082528060200260200182016040528015611415578160200160208202803683370190505b508152600160208083018290526040808401899052606084018890526000608085018190523360a086015260c090940184905284518452600282529092208351815583830151805194955085949193611473938501929101906119e9565b506040820151600282015560608201516003820155608082015180516114a3916004840191602090910190611a6d565b5060a082015180516114bf916005840191602090910190611a6d565b5060c082015160068201805460ff191691151591909117905560e0820151600782015561010082015160088201556101208201516009820155610140820151600a9091018054610160909301516001600160a01b039092166001600160a81b031990931692909217600160a01b9115159190910217905533600090815260036020908152604080832084518154600181018355918552938390200192909255825191519182527f0b5745354685a046e72f24602bcf00fa0ee07f0bf511afb5f2d3ab636241e41b910160405180910390a150505050505050565b600081815260026020908152604091829020600501805483518184028101840190945280845260609392830182828015610ecf576020028201919060005260206000209081546001600160a01b03168152600190910190602001808311610eb15750505050509050919050565b6000828152602081905260409020600101546116218161162b565b610ac083836116bc565b61163581336117e2565b50565b6116428282610edb565b6108b2576000828152602081815260408083206001600160a01b03851684529091529020805460ff191660011790556116783390565b6001600160a01b0316816001600160a01b0316837f2f8788117e7eff1d82e926ec794901d17c78024a50270940304540a733656f0d60405160405180910390a45050565b6116c68282610edb565b156108b2576000828152602081815260408083206001600160a01b0385168085529252808320805460ff1916905551339285917ff6391f5c32d9c69d2a47ea670b442974b53935d1edc7fd64eb21e047a839171b9190a45050565b8054821061172e57600080fd5b8054819061173e906001906121a7565b8154811061174e5761174e612134565b9060005260206000200160009054906101000a90046001600160a01b031681838154811061177e5761177e612134565b9060005260206000200160006101000a8154816001600160a01b0302191690836001600160a01b03160217905550808054806117bc576117bc6121be565b600082815260209020810160001990810180546001600160a01b03191690550190555050565b6117ec8282610edb565b6108b257611804816001600160a01b03166014611846565b61180f836020611846565b6040516020016118209291906121d4565b60408051601f198184030181529082905262461bcd60e51b825261063091600401612243565b6060600061185583600261203c565b61186090600261205b565b67ffffffffffffffff81111561187857611878611e72565b6040519080825280601f01601f1916602001820160405280156118a2576020820181803683370190505b509050600360fc1b816000815181106118bd576118bd612134565b60200101906001600160f81b031916908160001a905350600f60fb1b816001815181106118ec576118ec612134565b60200101906001600160f81b031916908160001a905350600061191084600261203c565b61191b90600161205b565b90505b6001811115611993576f181899199a1a9b1b9c1cb0b131b232b360811b85600f166010811061194f5761194f612134565b1a60f81b82828151811061196557611965612134565b60200101906001600160f81b031916908160001a90535060049490941c9361198c81612256565b905061191e565b5083156119e25760405162461bcd60e51b815260206004820181905260248201527f537472696e67733a20686578206c656e67746820696e73756666696369656e746044820152606401610630565b9392505050565b8280546119f59061216c565b90600052602060002090601f016020900481019282611a175760008555611a5d565b82601f10611a3057805160ff1916838001178555611a5d565b82800160010185558215611a5d579182015b82811115611a5d578251825591602001919060010190611a42565b50611a69929150611ac2565b5090565b828054828255906000526020600020908101928215611a5d579160200282015b82811115611a5d57825182546001600160a01b0319166001600160a01b03909116178255602090920191600190910190611a8d565b5b80821115611a695760008155600101611ac3565b600060208284031215611ae957600080fd5b81356001600160e01b0319811681146119e257600080fd5b600060208284031215611b1357600080fd5b5035919050565b60008060408385031215611b2d57600080fd5b50508035926020909101359150565b80356001600160a01b0381168114611b5357600080fd5b919050565b600060208284031215611b6a57600080fd5b6119e282611b3c565b60008060408385031215611b8657600080fd5b611b8f83611b3c565b946020939093013593505050565b60008060408385031215611bb057600080fd5b82359150611bc060208401611b3c565b90509250929050565b600080600060408486031215611bde57600080fd5b83359250602084013567ffffffffffffffff80821115611bfd57600080fd5b818601915086601f830112611c1157600080fd5b813581811115611c2057600080fd5b876020828501011115611c3257600080fd5b6020830194508093505050509250925092565b60005b83811015611c60578181015183820152602001611c48565b83811115610a295750506000910152565b60008151808452611c89816020860160208601611c45565b601f01601f19169290920160200192915050565b60006101408c8352806020840152611cb78184018d611c71565b604084019b909b5250506060810197909752941515608087015260a086019390935260c085019190915260e08401526001600160a01b031661010083015215156101209091015292915050565b600081518084526020808501945080840160005b83811015611d3d5781516001600160a01b031687529582019590820190600101611d18565b509495945050505050565b6020815260006119e26020830184611d04565b60006020808301818452808551808352604092508286019150828160051b87010184880160005b83811015611e6457603f1989840301855281516101808151855288820151818a870152611db182870182611c71565b9150508782015188860152606080830151818701525060808083015186830382880152611dde8382611d04565b9250505060a08083015186830382880152611df98382611d04565b9250505060c080830151611e108288018215159052565b505060e0828101519086015261010080830151908601526101208083015190860152610140808301516001600160a01b03169086015261016091820151151591909401529386019390860190600101611d82565b509098975050505050505050565b634e487b7160e01b600052604160045260246000fd5b604051601f8201601f1916810167ffffffffffffffff81118282101715611eb157611eb1611e72565b604052919050565b600080600080600060a08688031215611ed157600080fd5b8535945060208087013561ffff81168114611eeb57600080fd5b9450604087013567ffffffffffffffff80821115611f0857600080fd5b818901915089601f830112611f1c57600080fd5b813581811115611f2e57611f2e611e72565b611f40601f8201601f19168501611e88565b91508082528a84828501011115611f5657600080fd5b80848401858401376000908201909301929092525094979396509394606081013594506080013592915050565b60208082526010908201526f149859999b19481a5cc818db1bdcd95960821b604082015260600190565b6001600160a01b0388811682526020820188905286811660408301528581166060830152841660808201526001600160e01b0319831660a082015260e060c0820181905260009061200090830184611c71565b9998505050505050505050565b60006020828403121561201f57600080fd5b5051919050565b634e487b7160e01b600052601160045260246000fd5b600081600019048311821515161561205657612056612026565b500290565b6000821982111561206e5761206e612026565b500190565b600060001982141561208757612087612026565b5060010190565b600060208083850312156120a157600080fd5b823567ffffffffffffffff808211156120b957600080fd5b818501915085601f8301126120cd57600080fd5b8135818111156120df576120df611e72565b8060051b91506120f0848301611e88565b818152918301840191848101908884111561210a57600080fd5b938501935b838510156121285784358252938501939085019061210f565b98975050505050505050565b634e487b7160e01b600052603260045260246000fd5b60008261216757634e487b7160e01b600052601260045260246000fd5b500690565b600181811c9082168061218057607f821691505b602082108114156121a157634e487b7160e01b600052602260045260246000fd5b50919050565b6000828210156121b9576121b9612026565b500390565b634e487b7160e01b600052603160045260246000fd5b76020b1b1b2b9b9a1b7b73a3937b61d1030b1b1b7bab73a1604d1b815260008351612206816017850160208801611c45565b7001034b99036b4b9b9b4b733903937b6329607d1b6017918401918201528351612237816028840160208801611c45565b01602801949350505050565b6020815260006119e26020830184611c71565b60008161226557612265612026565b50600019019056fee34fa8d49c9a49f770331b389e49831dd778c8bfafac477cfd110611ae2bfff7a2646970667358221220f4402cd458e5dd508d490e9238750c432068552fae48342fe4beae1b5194818064736f6c63430008090033",
  "devdoc": {
    "kind": "dev",
    "methods": {
      "close(uint256)": {
        "details": "Called by the raffle owner when the raffle is over. This function will close the raffle to new entries and will call Airnode for randomness.send at least .001 ether to fund the sponsor wallet",
        "params": {
          "_raffleId": "The raffle id to close"
        }
      },
      "constructor": {
        "params": {
          "_airnodeRrpAddress": "Airnode RRP contract address (https://docs.api3.org/airnode/v0.6/reference/airnode-addresses.html)"
        }
      },
      "create(uint256,uint16,string,uint256,uint256)": {
        "params": {
          "_endTime": "Time the raffle ends",
          "_price": "The price to enter the raffle",
          "_startTime": "Time the raffle starts",
          "_title": "Title of the raffle",
          "_winnerCount": "The number of winners to be selected"
        }
      },
      "enter(uint256,uint256)": {
        "details": "To enter more than one entry, send the price * entryCount in the transaction.",
        "params": {
          "_raffleId": "The raffle id to enter",
          "entryCount": "The number of entries to enter"
        }
      },
      "getEntries(uint256)": {
        "params": {
          "_raffleId": "The raffle id to get the entries of"
        }
      },
      "getRoleAdmin(bytes32)": {
        "details": "Returns the admin role that controls `role`. See {grantRole} and {revokeRole}. To change a role's admin, use {_setRoleAdmin}."
      },
      "getWinners(uint256)": {
        "params": {
          "_raffleId": "The raffle id to get the winners of"
        }
      },
      "grantRole(bytes32,address)": {
        "details": "Grants `role` to `account`. If `account` had not been already granted `role`, emits a {RoleGranted} event. Requirements: - the caller must have ``role``'s admin role."
      },
      "hasRole(bytes32,address)": {
        "details": "Returns `true` if `account` has been granted `role`."
      },
      "pickWinners(bytes32,bytes)": {
        "details": "Only callable by Airnode."
      },
      "renounceRole(bytes32,address)": {
        "details": "Revokes `role` from the calling account. Roles are often managed via {grantRole} and {revokeRole}: this function's purpose is to provide a mechanism for accounts to lose their privileges if they are compromised (such as when a trusted device is misplaced). If the calling account had been revoked `role`, emits a {RoleRevoked} event. Requirements: - the caller must be `account`."
      },
      "revokeRole(bytes32,address)": {
        "details": "Revokes `role` from `account`. If `account` had been granted `role`, emits a {RoleRevoked} event. Requirements: - the caller must have ``role``'s admin role."
      },
      "setAirnodeRrpAddress(address)": {
        "params": {
          "_airnodeRrpAddress": "Sponsor Wallet address (https://docs.api3.org/airnode/v0.6/concepts/sponsor.html#derive-a-sponsor-wallet)"
        }
      },
      "setSponsorWallet(address)": {
        "params": {
          "_sponsorWallet": "Sponsor Wallet address (https://docs.api3.org/airnode/v0.6/concepts/sponsor.html#derive-a-sponsor-wallet)"
        }
      },
      "supportsInterface(bytes4)": {
        "details": "See {IERC165-supportsInterface}."
      }
    },
    "version": 1
  },
  "userdoc": {
    "kind": "user",
    "methods": {
      "close(uint256)": {
        "notice": "Close a raffle"
      },
      "create(uint256,uint16,string,uint256,uint256)": {
        "notice": "Create a new raffle"
      },
      "enter(uint256,uint256)": {
        "notice": "Enter a raffle"
      },
      "getEntries(uint256)": {
        "notice": "Get the raffle entries"
      },
      "getWinners(uint256)": {
        "notice": "Get the raffle winners"
      },
      "pickWinners(bytes32,bytes)": {
        "notice": "Randomness returned by Airnode is used to choose winners"
      },
      "setAirnodeRrpAddress(address)": {
        "notice": "set the airnodeRrp address"
      },
      "setSponsorWallet(address)": {
        "notice": "set the sponsorWallet address"
      }
    },
    "version": 1
  },
  "storageLayout": {
    "storage": [
      {
        "astId": 396,
        "contract": "contracts/Raffle.sol:Raffler",
        "label": "_roles",
        "offset": 0,
        "slot": "0",
        "type": "t_mapping(t_bytes32,t_struct(RoleData)391_storage)"
      },
      {
        "astId": 3035,
        "contract": "contracts/Raffle.sol:Raffler",
        "label": "_ids",
        "offset": 0,
        "slot": "1",
        "type": "t_struct(Counter)2483_storage"
      },
      {
        "astId": 3044,
        "contract": "contracts/Raffle.sol:Raffler",
        "label": "raffles",
        "offset": 0,
        "slot": "2",
        "type": "t_mapping(t_uint256,t_struct(Raffle)3098_storage)"
      },
      {
        "astId": 3049,
        "contract": "contracts/Raffle.sol:Raffler",
        "label": "accountRaffles",
        "offset": 0,
        "slot": "3",
        "type": "t_mapping(t_address,t_array(t_uint256)dyn_storage)"
      },
      {
        "astId": 3053,
        "contract": "contracts/Raffle.sol:Raffler",
        "label": "pendingRequestIds",
        "offset": 0,
        "slot": "4",
        "type": "t_mapping(t_bytes32,t_bool)"
      },
      {
        "astId": 3057,
        "contract": "contracts/Raffle.sol:Raffler",
        "label": "requestIdToRaffleId",
        "offset": 0,
        "slot": "5",
        "type": "t_mapping(t_bytes32,t_uint256)"
      },
      {
        "astId": 3059,
        "contract": "contracts/Raffle.sol:Raffler",
        "label": "airnode",
        "offset": 0,
        "slot": "6",
        "type": "t_address"
      },
      {
        "astId": 3061,
        "contract": "contracts/Raffle.sol:Raffler",
        "label": "airnodeRrpAddress",
        "offset": 0,
        "slot": "7",
        "type": "t_address"
      },
      {
        "astId": 3063,
        "contract": "contracts/Raffle.sol:Raffler",
        "label": "sponsor",
        "offset": 0,
        "slot": "8",
        "type": "t_address"
      },
      {
        "astId": 3065,
        "contract": "contracts/Raffle.sol:Raffler",
        "label": "sponsorWallet",
        "offset": 0,
        "slot": "9",
        "type": "t_address"
      },
      {
        "astId": 3068,
        "contract": "contracts/Raffle.sol:Raffler",
        "label": "ANUairnodeAddress",
        "offset": 0,
        "slot": "10",
        "type": "t_address"
      },
      {
        "astId": 3071,
        "contract": "contracts/Raffle.sol:Raffler",
        "label": "endpointId",
        "offset": 0,
        "slot": "11",
        "type": "t_bytes32"
      }
    ],
    "types": {
      "t_address": {
        "encoding": "inplace",
        "label": "address",
        "numberOfBytes": "20"
      },
      "t_array(t_address)dyn_storage": {
        "base": "t_address",
        "encoding": "dynamic_array",
        "label": "address[]",
        "numberOfBytes": "32"
      },
      "t_array(t_uint256)dyn_storage": {
        "base": "t_uint256",
        "encoding": "dynamic_array",
        "label": "uint256[]",
        "numberOfBytes": "32"
      },
      "t_bool": {
        "encoding": "inplace",
        "label": "bool",
        "numberOfBytes": "1"
      },
      "t_bytes32": {
        "encoding": "inplace",
        "label": "bytes32",
        "numberOfBytes": "32"
      },
      "t_mapping(t_address,t_array(t_uint256)dyn_storage)": {
        "encoding": "mapping",
        "key": "t_address",
        "label": "mapping(address => uint256[])",
        "numberOfBytes": "32",
        "value": "t_array(t_uint256)dyn_storage"
      },
      "t_mapping(t_address,t_bool)": {
        "encoding": "mapping",
        "key": "t_address",
        "label": "mapping(address => bool)",
        "numberOfBytes": "32",
        "value": "t_bool"
      },
      "t_mapping(t_bytes32,t_bool)": {
        "encoding": "mapping",
        "key": "t_bytes32",
        "label": "mapping(bytes32 => bool)",
        "numberOfBytes": "32",
        "value": "t_bool"
      },
      "t_mapping(t_bytes32,t_struct(RoleData)391_storage)": {
        "encoding": "mapping",
        "key": "t_bytes32",
        "label": "mapping(bytes32 => struct AccessControl.RoleData)",
        "numberOfBytes": "32",
        "value": "t_struct(RoleData)391_storage"
      },
      "t_mapping(t_bytes32,t_uint256)": {
        "encoding": "mapping",
        "key": "t_bytes32",
        "label": "mapping(bytes32 => uint256)",
        "numberOfBytes": "32",
        "value": "t_uint256"
      },
      "t_mapping(t_uint256,t_struct(Raffle)3098_storage)": {
        "encoding": "mapping",
        "key": "t_uint256",
        "label": "mapping(uint256 => struct Raffler.Raffle)",
        "numberOfBytes": "32",
        "value": "t_struct(Raffle)3098_storage"
      },
      "t_string_storage": {
        "encoding": "bytes",
        "label": "string",
        "numberOfBytes": "32"
      },
      "t_struct(Counter)2483_storage": {
        "encoding": "inplace",
        "label": "struct Counters.Counter",
        "members": [
          {
            "astId": 2482,
            "contract": "contracts/Raffle.sol:Raffler",
            "label": "_value",
            "offset": 0,
            "slot": "0",
            "type": "t_uint256"
          }
        ],
        "numberOfBytes": "32"
      },
      "t_struct(Raffle)3098_storage": {
        "encoding": "inplace",
        "label": "struct Raffler.Raffle",
        "members": [
          {
            "astId": 3073,
            "contract": "contracts/Raffle.sol:Raffler",
            "label": "id",
            "offset": 0,
            "slot": "0",
            "type": "t_uint256"
          },
          {
            "astId": 3075,
            "contract": "contracts/Raffle.sol:Raffler",
            "label": "title",
            "offset": 0,
            "slot": "1",
            "type": "t_string_storage"
          },
          {
            "astId": 3077,
            "contract": "contracts/Raffle.sol:Raffler",
            "label": "price",
            "offset": 0,
            "slot": "2",
            "type": "t_uint256"
          },
          {
            "astId": 3079,
            "contract": "contracts/Raffle.sol:Raffler",
            "label": "winnerCount",
            "offset": 0,
            "slot": "3",
            "type": "t_uint256"
          },
          {
            "astId": 3082,
            "contract": "contracts/Raffle.sol:Raffler",
            "label": "winners",
            "offset": 0,
            "slot": "4",
            "type": "t_array(t_address)dyn_storage"
          },
          {
            "astId": 3085,
            "contract": "contracts/Raffle.sol:Raffler",
            "label": "entries",
            "offset": 0,
            "slot": "5",
            "type": "t_array(t_address)dyn_storage"
          },
          {
            "astId": 3087,
            "contract": "contracts/Raffle.sol:Raffler",
            "label": "open",
            "offset": 0,
            "slot": "6",
            "type": "t_bool"
          },
          {
            "astId": 3089,
            "contract": "contracts/Raffle.sol:Raffler",
            "label": "startTime",
            "offset": 0,
            "slot": "7",
            "type": "t_uint256"
          },
          {
            "astId": 3091,
            "contract": "contracts/Raffle.sol:Raffler",
            "label": "endTime",
            "offset": 0,
            "slot": "8",
            "type": "t_uint256"
          },
          {
            "astId": 3093,
            "contract": "contracts/Raffle.sol:Raffler",
            "label": "balance",
            "offset": 0,
            "slot": "9",
            "type": "t_uint256"
          },
          {
            "astId": 3095,
            "contract": "contracts/Raffle.sol:Raffler",
            "label": "owner",
            "offset": 0,
            "slot": "10",
            "type": "t_address"
          },
          {
            "astId": 3097,
            "contract": "contracts/Raffle.sol:Raffler",
            "label": "airnodeSuccess",
            "offset": 20,
            "slot": "10",
            "type": "t_bool"
          }
        ],
        "numberOfBytes": "352"
      },
      "t_struct(RoleData)391_storage": {
        "encoding": "inplace",
        "label": "struct AccessControl.RoleData",
        "members": [
          {
            "astId": 388,
            "contract": "contracts/Raffle.sol:Raffler",
            "label": "members",
            "offset": 0,
            "slot": "0",
            "type": "t_mapping(t_address,t_bool)"
          },
          {
            "astId": 390,
            "contract": "contracts/Raffle.sol:Raffler",
            "label": "adminRole",
            "offset": 0,
            "slot": "1",
            "type": "t_bytes32"
          }
        ],
        "numberOfBytes": "64"
      },
      "t_uint256": {
        "encoding": "inplace",
        "label": "uint256",
        "numberOfBytes": "32"
      }
    }
  }
}